S00F000050726F6A6563742E737265633E
S113000003C1000027C1000025C1000023C1000076
S113001021C100001FC100001DC100001BC1000060
S113002019C1000017C1000015C1000013C1000070
S113003011C100000FC100000DC100000BC1000080
S113004009C1000007C1000005C1000003C1000090
S11300508DC20000FFC00000FDC00000FBC0000016
S1130060F9C00000F7C00000F5C00000F3C00000B4
S1130070F1C00000EFC00000EDC00000EBC00000C4
S1130080E9C00000E7C00000E5C00000E3C00000D4
S1130090E1C00000DFC00000DDC00000DBC00000E4
S11300A0D9C00000D7C00000D5C00000D3C00000F4
S11300B0D1C00000CFC00000CDC00000CBC0000004
S11300C0C9C00000C7C00000C5C00000C3C0000014
S11300D0C1C00000BFC00000BDC00000BBC0000024
S11300E0B9C00000B7C00000B5C00000B3C0000034
S11300F0B1C00000AFC00000ADC00000ABC0000044
S1130100A9C00000A7C00000A5C00000A3C0000053
S1130110A1C000009FC000009DC000009BC0000063
S113012099C0000097C0000095C0000093C0000073
S113013091C000008FC000008DC000008BC0000083
S113014089C0000087C0000085C0000083C0000093
S113015081C000007FC000007DC000007BC00000A3
S113016079C0000077C0000075C0000073C00000B3
S113017071C000006FC000006DC000006BC00000C3
S113018069C0000067C0000065C0000063C00000D3
S113019061C000005FC000005DC000005BC00000E3
S11301A059C0000057C0000055C0000053C00000F3
S11301B051C000004FC000004DC000004BC0000003
S11301C049C0000047C0000045C0000043C0000013
S11301D041C000003FC000003DC000003BC0000023
S11301E039C0000037C0000035C0000033C0000033
S11301F031C000002D0D2D0D2D0D630D530D600D1F
S11302002D0D2D0D630D530D11241FBECFEFCDBF4A
S1130210DFE3DEBF00E00CBF18BE19BE1ABE1BBE72
S113022010E2A0E0B0E2E8EAF3E200E00BBF02C0B3
S113023007900D92A635B107D9F71BBE20E3A6E5BA
S1130240B0E201C01D92AA3EB207E1F70E94441039
S11302500C94D211D5CEFC010396818392832FEFA7
S11302603FEF23833483858396838783908710822B
S11302700895FC01108611860895CF93DF939C01A5
S1130280FB01DC011196CD91DC911297C283D383DB
S11302908C819D81848395838C819D81DC01129660
S11302A06D937C9313976C837D8320873187F90149
S11302B080818F5F8083DF91CF910895CF93DF9307
S11302C0EB01488159814F3F2FEF520721F4FC0184
S11302D0A781B0850DC0DC01139601C0DF01129621
S11302E0ED91FC9113972081318142175307B0F7A8
S11302F01296ED91FC911397EA83FB83C483D58313
S1130300AC83BD831296CD93DC931397888799872A
S1130310FC0120812F5F2083DF91CF910895CF933B
S1130320DF93FC01A085B185C281D381848195814D
S11303308C839D83C481D581828193818A839B83AD
S113034011968D919C911297E817F90731F48481E5
S1130350958111968D939C931297108611868C919A
S113036081508C938C91DF91CF910895FC0160832F
S1130370319770833197108231971082319720E83A
S113038020833197108277974083319750838497E5
S11303900895E0E4F8E08FEC97E086A397A381E06A
S11303A080838683E0EAF0E0828181608283A09189
S11303B0B430B091B530CD91CDBFDD91DEBFFF91AA
S11303C0EF91DF91CF91BF91AF919F918F917F91E9
S11303D06F915F914F913F912F911F910F91FF90DA
S11303E0EF90DF90CF90BF90AF909F908F907F90D1
S11303F06F905F904F903F902F901F900F900FBE83
S11304000F90089581E008950F920FB6F8940F921B
S11304101F9211242F923F924F925F926F927F927C
S11304208F929F92AF92BF92CF92DF92EF92FF9200
S11304300F931F932F933F934F935F936F937F93E8
S11304408F939F93AF93BF93CF93DF93EF93FF93D8
S1130450A091B430B091B5300DB60D920EB60D9298
S113046011D7A091B430B091B530CD91CDBFDD910D
S1130470DEBFFF91EF91DF91CF91BF91AF919F913B
S11304808F917F916F915F914F913F912F911F9128
S11304900F91FF90EF90DF90CF90BF90AF909F901F
S11304A08F907F906F905F904F903F902F901F9010
S11304B00F900FBE0F9008950F920FB6F8940F92FD
S11304C01F9211242F923F924F925F926F927F92CC
S11304D08F929F92AF92BF92CF92DF92EF92FF9250
S11304E00F931F932F933F934F935F936F937F9338
S11304F08F939F93AF93BF93CF93DF93EF93FF9328
S1130500A091B430B091B5300DB60D920EB60D92E7
S11305107CD58111B7D6A091B430B091B530CD91CE
S1130520CDBFDD91DEBFFF91EF91DF91CF91BF9100
S1130530AF919F918F917F916F915F914F913F9177
S11305402F911F910F91FF90EF90DF90CF90BF906C
S1130550AF909F908F907F906F905F904F903F905F
S11305602F901F900F900FBE0F901895A5DF189530
S1130570CF93DF93EC0139D5809156209091572089
S1130580892B31F48BE590E2809356209093572089
S11305902091582030915920C9018C0F9D1F8F3F05
S11305A04FE0940770F42817390770F4C09156206F
S11305B0D0915720C20FD31F809358209093592075
S11305C005C0C0E0D0E002C0C0E0D0E0D2D5CE018A
S11305D0DF91CF91089508950FB6F8940F92FC011E
S11305E0928D0F900FBE81E0911180E008950F93DA
S11305F01F93CF93DF93EC01042F1A8D4C8D41117F
S11306000BC088819981892B09F041C08C819D811F
S1130610D4D71C821D8242C0011117C050E08A81C8
S11306209B810E946C112C8D8A819B81820F911D6C
S11306308A839B832C813D818217930750F18881A3
S113064099818A839B8380E029C050E08E819F81B9
S11306500E946C118C8D90E09195819591092E8169
S11306603F81280F391F2E833F83488159812417E6
S1130670350730F42C813D81820F931F8E839F8335
S1130680023049F4112349F0115080E007C080E0A2
S113069005C080E003C080E001C080E01F5F1A8FC6
S11306A0DF91CF911F910F910895FC01448D442354
S11306B0A9F050E026813781240F351F2683378324
S11306C0848195812817390720F080819181868360
S11306D09783CB01668177810C946C110895EF9216
S11306E0FF920F931F93CF938C010FB6F8940F9240
S11306F0FC01C68D1C169CF48189811106C00FC0B3
S1130700F8018189811105C00AC07801F1E1EF0E79
S1130710F11CC70146D68111CCD6C15089F78FEFA1
S1130720F801868F0F900FBE0FB6F8940F92C58D07
S11307301C169CF48085811106C00FC0F8018085C9
S1130740811105C00AC07801F8E0EF0EF11CC70161
S113075028D68111AED6C15089F78FEFF801858F65
S11307600F900FBECF911F910F91FF90EF900895BE
S1130770CF93DF93EC010FB6F8940F92E881F981DF
S11307808B8D2C8D90E030E0829FA001839F500DD3
S1130790929F500D11244E0F5F1F4C835D831A8E60
S11307A0EA83FB830197829FA001839F500D929F50
S11307B0500D1124CF01840F951F8E839F838FEFDB
S11307C08D8F8E8F61110AC08885882369F0CE01D0
S11307D00896E7D5882341F017DE06C0CE010896B7
S11307E03ADDCE01419637DD0F900FBE81E0DF91F7
S11307F0CF9108950F931F93CF93DF93082F162F54
S11308006623B1F0869FC00111244F96B1DEEC013E
S1130810009739F413C00B8F1C8F61E0CE01A8DF61
S11308200DC04F9688839983F6CFC883D983F3CFBD
S11308308FE190E09DDEEC01892BB9F7CE01DF91C9
S1130840CF911F910F910895AF92BF92CF92DF92F3
S1130850EF92FF920F931F93CF93DF93CDB7DEB741
S11308602597CDBFDEBF8C016B014C835D83A22E27
S1130870B12C7C0188E0E80EF11C0FB6F8940F92BD
S1130880F801928D838D981718F0F2E0AF1215C01D
S11308904A2DB601C801ABDEF8019189992339F0DC
S11308A0C80141967ED5882321F0AEDD02C08111B6
S11308B0ABDD0F900FBE81E046C08C819D81892BFA
S11308C021F40F900FBE80E03EC0B11005C0CE01F0
S11308D00196AFD5BB24B3940F900FBE86D30FB649
S11308E0F8940F92F801858D8F3F09F4158EF80165
S11308F0868D8F3F09F4168E0F900FBEBE016C5F7C
S11309007F4FCE010196A0D5811119C00FB6F8947E
S11309100F92F801928D0F900FBE838D98130BC028
S11309206C817D81C70114D5C801D9DE22D481111F
S1130930A4CF6ADDA2CFC801D2DE1BD49ECFC801EA
S1130940CEDE17D480E02596CDBFDEBFDF91CF91F8
S11309501F910F91FF90EF90DF90CF90BF90AF90D9
S11309600895CF93DF93482F60E081E043DFEC01EB
S1130970009759F01C821D82188219821E8220E081
S113098040E050E060E070E05FDFCE01DF91CF91A6
S11309900895EF92FF920F931F93CF93DF938A01F1
S11309A0FC01528D338D531710F02230E1F4422FA5
S11309B07801EC011E8D1BDE1F3F79F489898823A1
S11309C0A1F0CE014196EDD4882389F0E114F1041D
S11309D081F081E0F70180830DC0FF24F394F10ED0
S11309E0FE8E81E007C080E005C081E003C081E0A5
S11309F001C081E0DF91CF911F910F91FF90EF90A3
S1130A000895AF92BF92CF92DF92EF92FF920F932D
S1130A101F93CF93DF93CDB7DEB72597CDBFDEBF4E
S1130A208C015B014C835D83E12C6C0181E1C80E78
S1130A30D11C0FB6F8940F92F801F28CFF2091F0BC
S1130A40B501C80132DEFA94F801F28E808588235C
S1130A5029F0C8010896A5D48111D6DC0F900FBEE9
S1130A6081E045C08C819D81892B21F40F900FBEBC
S1130A7080E03DC0E11005C0CE010196DAD4EE2439
S1130A80E3940F900FBEB1D20FB6F8940F92F80111
S1130A90858D8F3F09F4158EF801868D8F3F09F4FB
S1130AA0168E0F900FBEBE016C5F7F4FCE01019674
S1130AB0CBD4811113C0C8018FDD882359F06C8118
S1130AC07D81C60145D4C8010ADE53D38111B1CF5B
S1130AD09BDCAFCFC80103DE4CD3ABCFC801FFDD35
S1130AE048D3C80179DD882309F4A3CF80E0259693
S1130AF0CDBFDEBFDF91CF911F910F91FF90EF909B
S1130B00DF90CF90BF90AF900895CF92DF92EF9295
S1130B10FF920F931F93CF93DF93CDB7DEB7259743
S1130B20CDBFDEBF8C016C837D83C12CD12C7C01B5
S1130B3081E1E80EF11C0FB6F8940F92D8015A9691
S1130B408C915A978823D1F081505A968C935A9756
S1130B508D919C91892B21F4C0D5F80184839583D0
S1130B60D80118968C91882329F0C801089619D4C5
S1130B7081114ADC0F900FBE81E071C08C819D8190
S1130B80892B21F40F900FBE80E069C0D11005C0FD
S1130B90CE0101964ED4DD24D3940F900FBE25D2FE
S1130BA00FB6F8940F92F801858D8F3F09F4158ED6
S1130BB0D8015E968C915E978F3F11F45E961C92DD
S1130BC00F900FBEBE016C5F7F4FCE0101963CD4E7
S1130BD0811121C0C80100DD8823C9F0F80180819A
S1130BE09181892B49F40FB6F8940F9284819581F1
S1130BF072D4C82E0F900FBE6C817D81C701A8D31B
S1130C00C8016DDDB6D2811196CFFEDB94CFC80149
S1130C1066DDAFD290CFC80162DDABD2C801DCDCA7
S1130C20882309F488CFCC20C9F00FB6F8940F922A
S1130C30F8018189882339F00688F789E02D8081BD
S1130C4064E0681B01C060E0D80114968D919C910A
S1130C501597F3D40F900FBE80E001C080E0259675
S1130C60CDBFDEBFDF91CF911F910F91FF90EF9029
S1130C70DF90CF900895CF93DF93EC010FB6F894F3
S1130C800F928D8D8F3F09F41D8E8E8D8F3F09F449
S1130C901E8E0F900FBE8A8D811103C0CE01419626
S1130CA068D3CE011CDDDF91CF910895E0917C30B3
S1130CB0F0917D308081811107C08FEF9FEF809389
S1130CC05D3090935E300895E0917C30F0917D30FA
S1130CD00580F681E02D0680F781E02D82819381E5
S1130CE080935D3090935E300895C0E9D0E38881AD
S1130CF08230E8F389DBFBCFFF920F931F93CF93EE
S1130D00DF93EC01F62E00916530109166308091EE
S1130D10B4309091B530029602DBCF3F8FEFD80705
S1130D2061F4FF2051F06091B4307091B5306E5F82
S1130D307F4F88E690E3A1DA2DC0C00FD11FE09168
S1130D40B430F091B530C283D383C017D10760F4B7
S1130D506091B4307091B53080917A3090917B304D
S1130D606E5F7F4FABDA16C06091B4307091B530CE
S1130D7080917C3090917D306E5F7F4F9FDA8091BF
S1130D805D3090915E30C817D90720F4C0935D3070
S1130D90D0935E30DF91CF911F910F91FF90089512
S1130DA04F925F926F927F928F929F92AF92BF9277
S1130DB0CF92DF92EF92FF920F93CF93DF934C0188
S1130DC06B015A012901CA01D3DB3C01892B09F4C7
S1130DD0D0C088E290E0CCDBEC01892B71F06F8A03
S1130DE0788E81E0A81AB1086A0C7B1CD6018C911C
S1130DF0898F8C91811104C017C0C301ECDBB9C089
S1130E00AE01465E5F4FF6013196B8E0CB0ED11CC1
S1130E10CF012191DA012D93AD01DC018C9188235E
S1130E2019F0EC15FD05A1F718A2043008F003E051
S1130E300E8B09A31AA26E01B2E0CB0ED11CC6011F
S1130E4018DACE010C9615DAC887D98784E090E0C9
S1130E50801B91098C879D87CA8BDB8B1BA21CA2EC
S1130E601DA21EA21FA2A201B401C3017FDA8883BE
S1130E709983E114F10419F0F701C083D1830FB60B
S1130E80F8940F92809167308F5F809367308091E0
S1130E90B4309091B530892B69F5C093B430D093B8
S1130EA0B530809167308130A9F580E990E3D3D9DA
S1130EB089E990E3D0D982EA90E3CDD98BEA90E333
S1130EC0CAD987E890E3C7D98EE790E3C4D981E70C
S1130ED090E3C1D988E690E3BED987E890E3809394
S1130EE07C3090937D308EE790E380937A309093BA
S1130EF07B3010C08091633081110CC0E091B4301C
S1130F00F091B53096898E89891720F0C093B4305A
S1130F10D093B53080915F308F5F80935F308E893E
S1130F2090916430981710F48093643090E09C01A1
S1130F30220F331F220F331F220F331F820F931FE1
S1130F40B60180579F4C99D90F900FBE80916330A2
S1130F50882359F0E091B430F091B53096898E89A8
S1130F60981728F451DA81E005C081E003C081E0DC
S1130F7001C08FEFDF91CF910F91FF90EF90DF9041
S1130F80CF90BF90AF909F908F907F906F905F9025
S1130F904F900895EF92FF920F930F2EFBE5EF2EE3
S1130FA0F0E3FF2EF02D00E020E030E040E850E0D8
S1130FB068E070E285E796E0F3DE813091F4F6D3E1
S1130FC0813079F4F8948FEF9FEF80935D309093A4
S1130FD05E3081E080936330109265301092663009
S1130FE0D8D90F91FF90EF90089580915A308F5F78
S1130FF080935A3008950FB6F8940F92809165301B
S1131000909166300F900FBE0895DF92EF92FF9299
S11310100F931F93CF93DF9380915A30811194C023
S1131020E0906530F09066308FEFE81AF80AE092AD
S11310306530F0926630E114F104B1F480917C30B3
S113104090917D3020917A3030917B3020937C30A8
S113105030937D3080937A3090937B3080916030F0
S11310608F5F8093603022DE80915D3090915E309E
S1131070E816F90610F4D12C4FC0D12CE0917C3045
S1131080F0917D308081811107C08FEF9FEF8093B5
S11310905D3090935E3040C0E0917C30F0917D30C3
S11310A00580F681E02DC681D7818A819B81E8166F
S11310B0F90628F480935D3090935E302DC08E0144
S11310C00E5F1F4FC8012BD98C899D89892B19F07C
S11310D0CE010C9624D98E8990916430981710F41F
S11310E08093643090E09C01220F331F220F331F42
S11310F0220F331F820F931FB80180579F4CBDD816
S1131100E091B430F091B5309E898689981708F43F
S1131110B5CFDD24D394B2CFE091B430F091B530A3
S1131120868990E0FC01EE0FFF1FEE0FFF1FEE0F0C
S1131130FF1F8E0F9F1FFC01E057FF4C8081823000
S113114048F0DD24D39406C0809162308F5F809391
S11311506230D12C80916130882311F0DD24D39446
S11311608D2DDF91CF911F910F91FF90EF90DF9024
S11311700895DF92EF92FF920F931F93CF93DF9323
S11311800FB6F8940F9280915A30815080935A3060
S113119080915A30811159C080916730811130C0DB
S11311A057C0D7011596ED91FC911697C681D7814A
S11311B0CE010C96B4D88E010E5F1F4FC801AFD874
S11311C08E8990916430981710F48093643090E085
S11311D09C01220F331F220F331F220F331F820F54
S11311E0931FB80180579F4C48D8E091B430F091D8
S11311F0B5309E898689981768F0D09261300AC00C
S1131200C0E0D0E00F2EF1E7EF2EF0E3FF2EF02D3B
S1131210DD24D394F70180818111C3CFCD2B09F054
S113122045DDC0916230CC2349F0D1E0EEDE81117E
S1131230D0936130C150D1F7109262308091613007
S1131240882329F0E1D881E003C080E001C080E078
S11312500F900FBEDF91CF911F910F91FF90EF90F0
S1131260DF900895CF93DF93EC01892B39F0BDDE35
S113127060E0CE0141DD7DDF811101C0C5D8DF9181
S1131280CF91089580915A30882321F081E0809392
S1131290613008951092613020916430822F90E083
S11312A0FC01EE0FFF1FEE0FFF1FEE0FFF1FE80FF5
S11312B0F91FE057FF4C3081311111C02150822FAA
S11312C090E0FC01EE0FFF1FEE0FFF1FEE0FFF1F5C
S11312D0E80FF91FE057FF4C3081332379F3AC0159
S11312E0440F551F440F551F440F551F480F591FD6
S11312F0DA01A057BF4C1196ED91FC911297028030
S1131300F381E02D1196ED93FC9312974D565F4CAB
S1131310E417F50729F442815381FD014183528387
S1131320FC01EE0FFF1FEE0FFF1FEE0FFF1F8E0FCE
S11313309F1FFC01E057FF4C0180F281E02D868164
S113134097818093B4309093B5302093643008959E
S1131350CF93DF93EB016091B4307091B530645F4B
S11313607F4F0E945E0161E0CE01C6DCDF91CF9128
S113137008950F931F93CF938B01C42F6091B430C2
S11313807091B530645F7F4F0E943D01CC2311F012
S11313900FEF1FEF6C2FC801AFDCCF911F910F919E
S11313A008950F931F93CF93DF93DC011596ED916E
S11313B0FC911697C681D7818E01045F1F4FC80127
S11313C00E948F0180915A3081111CC00A5011096A
S11313D0C8010E948F018E8990916430981710F48F
S11313E08093643090E09C01220F331F220F331F3F
S11313F0220F331F820F931FB80180579F4C0E9406
S11314003D0105C0B80181E790E30E943D01E091F0
S1131410B430F091B5309E898689891720F481E033
S11314208093613001C080E0DF91CF911F910F91D3
S1131430089520916030FC01208320916530309123
S11314406630218332830895CF93DF930FB6F894E7
S11314500F922091653030916630DB014D915C91A3
S11314604F3FBFEF5B07E9F0EC01E981FA81A091FE
S11314706030B881BA1719F02E173F07A0F42E1B5D
S11314803F0B2417350740F4FB01421B530B4083E9
S11314905183CFDF80E008C0FB011082118281E01C
S11314A003C080E001C081E00F900FBEDF91CF91B7
S11314B0089581E08093613008958091633088239A
S11314C031F080915A30882321F080E0089581E042
S11314D0089582E008950F931F93CF93DF93FC0147
S11314E0892B09F464C02689A091B430B091B53039
S11314F056968C91281708F04EC0848595859923BB
S113150064F0A091B430B091B53056963C9184E02B
S113151090E0831B91098487958730E0C901880F87
S1131520991F880F991F880F991F280F391F20575B
S11315303F4C828593858217930721F58F01EF0134
S11315402296CE010E948F01E091B430F091B53023
S11315508689F801868B90916430981710F48093F3
S1131560643090E09C01220F331F220F331F220F9F
S1131570331F820F931FBE0180579F4C0E943D0171
S113158081E016C0A091B430B091B53056968C91DC
S1131590868B81E00DC0A091B430B091B53081E06C
S11315A021A156969C91291718F080E001C080E093
S11315B0DF91CF911F910F9108950F931F93CF93B4
S11315C0DF93FC01892B79F182A1815082A32689C2
S11315D091A1291751F181112AC0EF018F010E5FEA
S11315E01F4FC8010E948F0189A18E8B24E030E037
S11315F0281B31092C873D8790916430981710F48B
S11316008093643090E09C01220F331F220F331F1C
S1131610220F331F820F931FB80180579F4C0E94E3
S11316203D0181E005C080E003C080E001C080E0AE
S1131630DF91CF911F910F9108950F931F93CF9333
S1131640DF93FC01892B09F443C091A1961708F498
S1131650962F86898917E1F122A12130C9F5968B4D
S113166024853585332334F024E030E0291B310907
S11316702487358790E09C01220F331F220F331FEC
S1131680220F331F820F931F80579F4C228533856F
S113169028173907E9F4EF018F010E5F1F4FC801C6
S11316A00E948F018E8990916430981710F4809372
S11316B0643090E09C01220F331F220F331F220F4E
S11316C0331F820F931FB80180579F4C0E943D0126
S11316D0DF91CF911F910F9108958091B430909133
S11316E0B530892B39F0E091B430F091B53082A156
S11316F08F5F82A38091B4309091B5300895FC013E
S113170062837383808791874617570790F0421B43
S1131710530B8485958548175907E0F4BF016E5F24
S11317207F4F8091BC309091BD300E945E0180E07B
S113173008954217530718F46217730768F4BF013A
S11317406E5F7F4F8091BE309091BF300E945E01EA
S113175080E0089581E0089581E008950FB6F8943B
S11317600F928091BA309091BB30892BE1F489ECCF
S113177090E30E942B0180EC90E30E942B0189EC02
S113178090E38093BE309093BF3080EC90E38093DD
S1131790BC309093BD3040E065E08AE02BD8809364
S11317A0BA309093BB300F900FBE0895EF92FF9222
S11317B00F93D4DF8091BA309091BB30892B89F09C
S11317C00F2EF8EBEF2EF0E3FF2EF02D03E020E0D8
S11317D030E040E850E06DE070E287EA9CE0E0DA57
S11317E001C080E00F91FF90EF9008950F931F9335
S11317F0CF93DF93CDB7DEB72597CDBFDEBFE091A2
S1131800BA30F091BB30309759F1D90169834A83DA
S11318105B838C839D836630DCF44FDE823059F425
S113182020E0A801BE016F5F7F4F8091BA30909194
S1131830BB300AD816C020E040E050E0BE016F5F24
S11318407F4F8091BA309091BB300E94240409C02C
S113185020E0AD01BE016F5F7F4FCF019AD801C078
S113186080E02596CDBFDEBFDF91CF911F910F9110
S11318700895AF92BF92CF92DF92EF92FF920F93AF
S11318801F93CF93DF936C01B6DB7C018091B6305C
S11318909091B730E816F90608F047C02FC00580CC
S11318A0F681E02DA080B180C681D7818E010E5FC4
S11318B01F4FC8010E948F01E989FA89CE01199549
S11318C08E858130D9F48C859D858A0D9B1DA81643
S11318D0B90660F48A839B83C887D987B80180914D
S11318E0BE309091BF300E945E0108C000E010E05D
S11318F020E030E0A50160E0CE0178DFE091BE3069
S1131900F091BF3080818111CACF8091BC30909119
S1131910BD308093BE309093BF30E093BC30F093E1
S1131920BD3081E0F601808302C0F6011082E092AE
S1131930B630F092B730C701DF91CF911F910F916C
S1131940FF90EF90DF90CF90BF90AF900895CF932A
S1131950DF9300D000D0CDB7DEB7CE0101965C0195
S1131960E82EFB2CE091BE30F091BF3080818823BB
S113197009F4B6C00580F681E02DC080D18035DB46
S1131980C50177DF8C018981811142C00C151D05C9
S113199080F1EFDBE091BE30F091BF300580F6813D
S11319A0E02D86809780C40102960E948F01D401A5
S11319B01E968C911E978130A1F41C966D917C919A
S11319C01D976C0D7D1D9601A801C40198DE882326
S11319D041F000E010E020E030E0A60160E0C40146
S11319E005DFD4015196ED91FC915297C4011995EC
S11319F06AC040E0B601601B710B8091BA309091CF
S1131A00BB3039D9B6DB81115EC00E9404025BC0D1
S1131A10B0DB59C0898188230CF455C0CC80DD80AB
S1131A20F60182859385892B21F0C60102960E94D6
S1131A308F01CE0106961DDFAC018981082E000CB2
S1131A40990BAA0BBB0B8A30910508F03CC0FC0132
S1131A508827E650FF4F8F4FE1C32A813B81D6018F
S1131A601C966D917C911D97620F731FC60147DE12
S1131A70882349F1D6015196ED91FC915297C60104
S1131A801995F60186858130F1F44A815B8184855C
S1131A909585480F591F00E010E020E030E060E039
S1131AA0C601A4DE10C06A817B81D6011C966D93A9
S1131AB07C931D97640F751F9A01C60120DE03C035
S1131AC0C6010E94EB0240E050E06E2D7F2D809114
S1131AD0BA309091BB300E94010581119BCF42CF57
S1131AE084DAC501C6DE8C018981811191CFE09130
S1131AF0BC30F091BD30808141E0811140E0C12CC7
S1131B00D12C78CFC0E8D6E01FEF6FEF7FEF809144
S1131B10DA309091DB300E948505D0D383709078C1
S1131B20992324F401978C6F9F6F01968093D23090
S1131B309093D3308C811C8388EB9BE093DB8C8166
S1131B401C8280EA9FE08EDB8C811C8320E040E0D5
S1131B5050E060E070E08091E6309091E7300E94C0
S1131B60240420E040E050E060E070E08091E03048
S1131B709091E1300E942404C8CFC0E6D6E000E88A
S1131B8016E00F2EF3E0AF2EB12CF02D6894CC2488
S1131B90C1F8D12CEE24E394F12C6FEF7FEF809108
S1131BA0E6309091E7300E9485052CC0888580FD41
S1131BB008C01092062010920720F80184818E7FBD
S1131BC08483888581FD08C0E0920620F092072076
S1131BD0F80184818D7F8483888582FD08C0C0924A
S1131BE00620D0920720F80184818B7F8483888526
S1131BF083FD08C0A0920620B0920720F8018481DA
S1131C00877F84838091062090910720059771F245
S1131C1020E040E050E060E070E08091E43090919A
S1131C20E5300E94240420E040E050E060E070E0F1
S1131C308091E8309091E9300E942404AECF0F2EB9
S1131C40F0E6EF2EF6E0FF2EF02DC0E8D6E0AA2451
S1131C50A394B12C00EE17E06894CC24C1F8D12CE5
S1131C606FEF7FEF8091E0309091E1300E94850525
S1131C702A2D3B2D43E050E02CC0F701808584FDE4
S1131C8007C010920420109205208C818F7E8C83D3
S1131C90F701808585FD07C020930420309305203B
S1131CA08C818F7D8C83F801808580FD07C0C09274
S1131CB00420D09205208C818F7B8C83F801808551
S1131CC081FD07C040930420509305208C818F77B9
S1131CD08C838091042090910520059771F220E077
S1131CE040E050E060E070E08091DE309091DF30C1
S1131CF00E94240420E040E050E060E070E0809125
S1131D00E2309091E3300E942404AACFC1E0D0E0F5
S1131D106FEF7FEF8091E4309091E5300E9485056C
S1131D206FEF7FEF8091E2309091E3300E94850560
S1131D306FEF7FEF8091D8309091D9300E94850564
S1131D408091D4309091D530892B21F4C093D43034
S1131D50D093D53020E040E050E060E070E0809126
S1131D60D8309091D9300E94240420E040E050E023
S1131D7060E070E08091DC309091DD300E942404BA
S1131D80C7CFC2E0D0E06FEF7FEF8091E830909151
S1131D90E9300E9485056FEF7FEF8091DE309091EE
S1131DA0DF300E9485056FEF7FEF8091D8309091EE
S1131DB0D9300E9485058091D4309091D530892BFB
S1131DC021F4C093D430D093D53020E040E050E0EB
S1131DD060E070E08091D8309091D9300E94240462
S1131DE020E040E050E060E070E08091D6309091D7
S1131DF0D7300E942404C7CFC0E8D6E0FF24FA9469
S1131E0005E010E06FEF7FEF8091DC309091DD30E2
S1131E100E9485056FEF7FEF8091D6309091D73087
S1131E200E94850584EF91E01DDA8C81FC8280910B
S1131E30D4309091D530019709F046C02091062006
S1131E40309107208091D2309091D33028173907F0
S1131E5009F03AC08C81807F8C8384EF91E002DAB0
S1131E608C818F608C8384EF91E0FCD98C81807F9E
S1131E708C8384EF91E0F6D98C818F608C8384EF1E
S1131E8091E0F0D98C81807F8C8384EF91E0EAD952
S1131E908C818F608C8384EF91E0E4D98C81807F86
S1131EA08C8384EF91E0DED98C818F608C8384EF06
S1131EB091E0D8D98C81807F8C8384EF91E0D2D952
S1131EC08C818F608C83C8C08091D4309091D53040
S1131ED0029709F03CC020910420309105208091A4
S1131EE0D2309091D3302817390789F58C818F70BF
S1131EF08C8384EF91E0B6D98C81806F8C8384EFDE
S1131F0091E0B0D98C818F708C8384EF91E0AAD951
S1131F108C81806F8C8384EF91E0A4D98C818F7045
S1131F208C8384EF91E09ED98C81806F8C8384EFC5
S1131F3091E098D98C818F708C8384EF91E092D951
S1131F408C81806F8C8384EF91E08CD985C08091E3
S1131F50D4309091D530019709F03CC020910420F1
S1131F60309105208091D2309091D33028173907D1
S1131F7089F58C818F708C8384EF91E073D98C8187
S1131F80806F8C8384EF91E06DD98C818F708C830A
S1131F9084EF91E067D98C81806F8C8384EF91E02A
S1131FA061D98C818F708C8384EF91E05BD98C81B3
S1131FB0806F8C8384EF91E055D98C818F708C83F2
S1131FC084EF91E04FD98C81806F8C8384EF91E012
S1131FD049D942C08091D4309091D530029709F00C
S1131FE03BC020910620309107208091D2309091FF
S1131FF0D3302817390781F58C81807F8C8384EF57
S113200091E030D98C818F608C8384EF91E02AD960
S11320108C81807F8C8384EF91E024D98C818F60C4
S11320208C8384EF91E01ED98C81807F8C8384EF34
S113203091E018D98C818F608C8384EF91E012D960
S11320408C81807F8C8384EF91E00CD98C818F60AC
S11320508C8384EF91E006D91092D4301092D5305D
S1132060009306201093072000930420109305206A
S113207020E040E050E060E070E08091DA30909140
S1132080DB300E942404BECEEF92FF920F93E0E86F
S1132090F6E08FEF84838083E0E6F6E088E1808BCE
S11320A0818B828B838B848B858BE0EEF7E0808B36
S11320B0818B43E060E081E00E94FA038093DA3090
S11320C09093DB3043E060E081E00E94FA03809368
S11320D0E6309093E73043E060E081E00E94FA0349
S11320E08093E0309093E13043E060E081E00E942F
S11320F0FA038093E4309093E53043E060E081E0BC
S11321000E94FA038093E8309093E93043E060E062
S113211081E00E94FA038093E2309093E33043E03D
S113212060E081E00E94FA038093DE309093DF3018
S113213081E00E94B1048093D8309093D93043E079
S113214060E081E00E94FA038093DC309093DD30FC
S113215043E060E081E00E94FA038093D6309093DC
S1132160D73020E040E050E060E070E08091DA3069
S11321709091DB300E94240420E040E050E060E0D5
S113218070E08091D8309091D9300E942404E12CE1
S1132190F12C01E020E030E040E850E065E170E23D
S11321A082E89DE00E94D00620E030E040E850E064
S11321B06CE170E28DEB9DE00E94D00620E030E0FF
S11321C040E850E069E270E28FE19EE00E94D006B0
S11321D020E030E040E850E067E370E286E89EE00B
S11321E00E94D00620E030E040E850E061E470E274
S11321F081EC9EE00E94D00620E030E040E850E010
S11322006CE470E28CEF9EE00E94D0060E94CA0744
S113221080E090E00F91FF90EF900895EE0FFF1F84
S1132220881F8BBF0790F691E02D1BBE19948F92E7
S11322309F92AF92BF92CF92DF92EF92FF92CF9391
S1132240DF93EC01688179818A819B816115710535
S11322508105910521F464E279ED8BE597E02DE1A8
S113226033EF41E050E041D049015A019B01AC01F8
S1132270A7EAB1E456D06B017C01ACEEB4EFA50142
S113228094015BD0DC01CB018C0D9D1DAE1DBF1DE7
S1132290B7FF03C00197A109B04888839983AA8333
S11322A0BB839F77DF91CF91FF90EF90DF90CF902A
S11322B0BF90AF909F908F900895B9CF80E090E247
S11322C0B6CFA0E0B0E08093002090930120A093CB
S11322D00220B09303200895FB01DC0102C00190A9
S11322E00D9241505040D8F70895052E97FB16F4EF
S11322F000940FD057FD05D024D007FC02D046F43B
S113230008C050954095309521953F4F4F4F5F4FF2
S1132310089590958095709561957F4F8F4F9F4F4D
S1132320089531D0A59F900DB49F900DA49F800D6A
S1132330911D11240895B7FFF4CFF3DF821B930B93
S11323400895A1E21A2EAA1BBB1BFD010DC0AA1FF2
S1132350BB1FEE1FFF1FA217B307E407F50720F00A
S1132360A21BB30BE40BF50B661F771F881F991F85
S11323701A9469F760957095809590959B01AC01CE
S1132380BD01CF010895A29FB001B39FC001A39FD7
S1132390700D811D1124911DB29F700D811D11249A
S10B23A0911D0895F894FFCF8C
S11323A8010000000500050049444C4500546D72C5
S11323B8205376630041626C6175660041626672FF
S11323C86167654C696E6B7300416266726167652B
S11323D8526563687473004C696E6B7345727374E9
S11323E80052656368747345727374004572676557
S10923F8626E697300002F
S9030000FC
